:030000000209BD35
:0C09BD00787FE4F6D8FD75811C020A0466
:100B5300416363657373204772616E74656400411A
:0D0B630063636573732044656E696564000B
:0B0BA800050A31323334000213000054
:100B70007F38120B847F0C120B847F01120B847F51
:040B800080020B8460
:100B84008FA0C2B0C2B1D2B27F0A7E00120B2DC2B6
:020B9400B2228B
:060AFE008B158A16891712
:100B0400E4F518F519AB15AA16A9178519828518E5
:100B140083120AB8FF600D120B960519E51970E5EA
:040B2400051880E14F
:010B280022AA
:100B96008FA0D2B0C2B1D2B27F0A7E00120B2DC294
:020BA600B22279
:040B29007FC87E0003
:100B2D00E4FDFCC3ED9FEE6480F8EC6480985015F5
:100B3D00E4FBFA0BBB00010AEB64FA4A70F50DBD3C
:050B4D0000010C80DE38
:010B52002280
:10080000120B70D3E5149403E513648094804003C5
:10081000020957D296D295D294D293D292D291D243
:1008200090C2902094167F31120B96740F2514F805
:1008300076310514E5147034051380302095167F49
:1008400032120B96740F2514F876320514E51470E5
:1008500002051380172096177F33120B96740F250D
:1008600014F876330514E51470020513120B29D21F
:1008700096D295D294D293D292D291D290C2912014
:1008800094167F34120B96740F2514F876340514E1
:10089000E5147034051380302095167F35120B96C1
:1008A000740F2514F876350514E5147002051380CD
:1008B000172096177F36120B96740F2514F876368C
:1008C0000514E51470020513120B29D296D295D2A5
:1008D00094D293D292D291D290C2922094167F3722
:1008E000120B96740F2514F876370514E51470343E
:1008F000051380302095167F38120B96740F25143F
:10090000F876380514E51470020513801720961741
:100910007F39120B96740F2514F876390514E514F7
:1009200070020513120B29D296D295D294D293D28B
:1009300092D291D290C2933095030208037F301275
:100940000B96740F2514F876300514E51470020523
:1009500013120B29020803751800751900751A0F78
:10096000751B00751C047B007A00790A120A49EF96
:100970003395E0F5088F09450970137F01120B8448
:100980007F80120B847BFF7A0B7953120AFED3E52A
:10099000099400E50864809480500CC3E5086480E5
:1009A000948040030208037F01120B847F80120BA6
:0D09B000847BFF7A0B7962120AFE020803B5
:1009C900020800E493A3F8E493A34003F68001F23C
:1009D90008DFF48029E493A3F85407240CC8C3332F
:1009E900C4540F4420C8834004F456800146F6DFFE
:1009F900E4800B0102040810204080900BA8E47EDB
:100A0900019360BCA3FF543F30E509541FFEE493F2
:100A1900A360010ECF54C025E060A840B8E493A3B9
:100A2900FAE493A3F8E493A3C8C582C8CAC583CAE4
:100A3900F0A3C8C582C8CAC583CADFE9DEE780BE9C
:010BB3000041
:100AB800BB010CE58229F582E5833AF583E02250F3
:100AC80006E92582F8E622BBFE06E92582F8E2223D
:0D0AD800E58229F582E5833AF583E4932257
:100A49008B158A168917AB18AA19A91A120AE5FE75
:100A5900AB15AA16A917120AE5FF6E702BEF600DE8
:100A6900E51C151C7002151B14451B70037F002221
:100A790074012517F517E43516F5167401251AF5CD
:100A89001AE43519F51980BEAB15AA16A917120A69
:100A9900E5FDD3EE6480F8ED64809840037F012280
:0F0AA900AB18AA19A91A120AE5FFC3ED9FFF2285
:100AE500BB010689828A83E0225002E722BBFE020F
:090AF500E32289828A83E4932242
:00000001FF
